{
  "_format": "hh-sol-artifact-1",
  "contractName": "Token",
  "sourceName": "contracts/Token.sol",
  "abi": [
    {
      "inputs": [],
      "stateMutability": "nonpayable",
      "type": "constructor"
    },
    {
      "inputs": [
        {
          "internalType": "address",
          "name": "account",
          "type": "address"
        }
      ],
      "name": "checkBalance",
      "outputs": [
        {
          "internalType": "uint256",
          "name": "",
          "type": "uint256"
        }
      ],
      "stateMutability": "view",
      "type": "function"
    },
    {
      "inputs": [],
      "name": "name",
      "outputs": [
        {
          "internalType": "string",
          "name": "",
          "type": "string"
        }
      ],
      "stateMutability": "view",
      "type": "function"
    },
    {
      "inputs": [],
      "name": "owner",
      "outputs": [
        {
          "internalType": "address",
          "name": "",
          "type": "address"
        }
      ],
      "stateMutability": "view",
      "type": "function"
    },
    {
      "inputs": [],
      "name": "symbol",
      "outputs": [
        {
          "internalType": "string",
          "name": "",
          "type": "string"
        }
      ],
      "stateMutability": "view",
      "type": "function"
    },
    {
      "inputs": [],
      "name": "totalTokens",
      "outputs": [
        {
          "internalType": "uint256",
          "name": "",
          "type": "uint256"
        }
      ],
      "stateMutability": "view",
      "type": "function"
    },
    {
      "inputs": [
        {
          "internalType": "address",
          "name": "to",
          "type": "address"
        },
        {
          "internalType": "uint256",
          "name": "amount",
          "type": "uint256"
        }
      ],
      "name": "transferTokens",
      "outputs": [],
      "stateMutability": "nonpayable",
      "type": "function"
    }
  ],
  "bytecode": "0x60806040526040518060400160405280600781526020017f48617264686174000000000000000000000000000000000000000000000000008152506000908051906020019061004f92919061013b565b506040518060400160405280600381526020017f48485400000000000000000000000000000000000000000000000000000000008152506001908051906020019061009b92919061013b565b506127106002553480156100ae57600080fd5b50600254600360003373ffffffffffffffffffffffffffffffffffffffff1673ffffffffffffffffffffffffffffffffffffffff1681526020019081526020016000208190555033600460006101000a81548173ffffffffffffffffffffffffffffffffffffffff021916908373ffffffffffffffffffffffffffffffffffffffff16021790555061023f565b8280546101479061020d565b90600052602060002090601f01602090048101928261016957600085556101b0565b82601f1061018257805160ff19168380011785556101b0565b828001600101855582156101b0579182015b828111156101af578251825591602001919060010190610194565b5b5090506101bd91906101c1565b5090565b5b808211156101da5760008160009055506001016101c2565b5090565b7f4e487b7100000000000000000000000000000000000000000000000000000000600052602260045260246000fd5b6000600282049050600182168061022557607f821691505b60208210811415610239576102386101de565b5b50919050565b61082f8061024e6000396000f3fe608060405234801561001057600080fd5b50600436106100625760003560e01c806306fdde03146100675780635f515226146100855780637e1c0c09146100b55780638da5cb5b146100d357806395d89b41146100f1578063bec3fa171461010f575b600080fd5b61006f61012b565b60405161007c91906104f7565b60405180910390f35b61009f600480360381019061009a919061057c565b6101b9565b6040516100ac91906105c2565b60405180910390f35b6100bd610202565b6040516100ca91906105c2565b60405180910390f35b6100db610208565b6040516100e891906105ec565b60405180910390f35b6100f961022e565b60405161010691906104f7565b60405180910390f35b61012960048036038101906101249190610633565b6102bc565b005b60008054610138906106a2565b80601f0160208091040260200160405190810160405280929190818152602001828054610164906106a2565b80156101b15780601f10610186576101008083540402835291602001916101b1565b820191906000526020600020905b81548152906001019060200180831161019457829003601f168201915b505050505081565b6000600360008373ffffffffffffffffffffffffffffffffffffffff1673ffffffffffffffffffffffffffffffffffffffff168152602001908152602001600020549050919050565b60025481565b600460009054906101000a900473ffffffffffffffffffffffffffffffffffffffff1681565b6001805461023b906106a2565b80601f0160208091040260200160405190810160405280929190818152602001828054610267906106a2565b80156102b45780601f10610289576101008083540402835291602001916102b4565b820191906000526020600020905b81548152906001019060200180831161029757829003601f168201915b505050505081565b80600360003373ffffffffffffffffffffffffffffffffffffffff1673ffffffffffffffffffffffffffffffffffffffff16815260200190815260200160002054101561033e576040517f08c379a000000000000000000000000000000000000000000000000000000000815260040161033590610720565b60405180910390fd5b80600360003373ffffffffffffffffffffffffffffffffffffffff1673ffffffffffffffffffffffffffffffffffffffff16815260200190815260200160002054610389919061076f565b600360003373ffffffffffffffffffffffffffffffffffffffff1673ffffffffffffffffffffffffffffffffffffffff1681526020019081526020016000208190555080600360008473ffffffffffffffffffffffffffffffffffffffff1673ffffffffffffffffffffffffffffffffffffffff1681526020019081526020016000205461041791906107a3565b600360008473ffffffffffffffffffffffffffffffffffffffff1673ffffffffffffffffffffffffffffffffffffffff168152602001908152602001600020819055505050565b600081519050919050565b600082825260208201905092915050565b60005b8381101561049857808201518184015260208101905061047d565b838111156104a7576000848401525b50505050565b6000601f19601f8301169050919050565b60006104c98261045e565b6104d38185610469565b93506104e381856020860161047a565b6104ec816104ad565b840191505092915050565b6000602082019050818103600083015261051181846104be565b905092915050565b600080fd5b600073ffffffffffffffffffffffffffffffffffffffff82169050919050565b60006105498261051e565b9050919050565b6105598161053e565b811461056457600080fd5b50565b60008135905061057681610550565b92915050565b60006020828403121561059257610591610519565b5b60006105a084828501610567565b91505092915050565b6000819050919050565b6105bc816105a9565b82525050565b60006020820190506105d760008301846105b3565b92915050565b6105e68161053e565b82525050565b600060208201905061060160008301846105dd565b92915050565b610610816105a9565b811461061b57600080fd5b50565b60008135905061062d81610607565b92915050565b6000806040838503121561064a57610649610519565b5b600061065885828601610567565b92505060206106698582860161061e565b9150509250929050565b7f4e487b7100000000000000000000000000000000000000000000000000000000600052602260045260246000fd5b600060028204905060018216806106ba57607f821691505b602082108114156106ce576106cd610673565b5b50919050565b7f4e6f7420456e6f75676820546f6b656e73000000000000000000000000000000600082015250565b600061070a601183610469565b9150610715826106d4565b602082019050919050565b60006020820190508181036000830152610739816106fd565b9050919050565b7f4e487b7100000000000000000000000000000000000000000000000000000000600052601160045260246000fd5b600061077a826105a9565b9150610785836105a9565b92508282101561079857610797610740565b5b828203905092915050565b60006107ae826105a9565b91506107b9836105a9565b9250827fffffffffffffffffffffffffffffffffffffffffffffffffffffffffffffffff038211156107ee576107ed610740565b5b82820190509291505056fea264697066735822122026e309b6bbdd2f021fb8a60210802d952ed95a38e98675b226d665752ee209d864736f6c63430008090033",
  "linkReferences": {},
  "deployedLinkReferences": {}
}