{
  "_format": "hh-sol-artifact-1",
  "contractName": "Token",
  "sourceName": "contracts/Token.sol",
  "abi": [
    {
      "inputs": [],
      "stateMutability": "nonpayable",
      "type": "constructor"
    },
    {
      "inputs": [
        {
          "internalType": "address",
          "name": "account",
          "type": "address"
        }
      ],
      "name": "checkBalance",
      "outputs": [
        {
          "internalType": "uint256",
          "name": "",
          "type": "uint256"
        }
      ],
      "stateMutability": "view",
      "type": "function"
    },
    {
      "inputs": [],
      "name": "name",
      "outputs": [
        {
          "internalType": "string",
          "name": "",
          "type": "string"
        }
      ],
      "stateMutability": "view",
      "type": "function"
    },
    {
      "inputs": [],
      "name": "owner",
      "outputs": [
        {
          "internalType": "address",
          "name": "",
          "type": "address"
        }
      ],
      "stateMutability": "view",
      "type": "function"
    },
    {
      "inputs": [],
      "name": "symbol",
      "outputs": [
        {
          "internalType": "string",
          "name": "",
          "type": "string"
        }
      ],
      "stateMutability": "view",
      "type": "function"
    },
    {
      "inputs": [],
      "name": "totalTokens",
      "outputs": [
        {
          "internalType": "uint256",
          "name": "",
          "type": "uint256"
        }
      ],
      "stateMutability": "view",
      "type": "function"
    },
    {
      "inputs": [
        {
          "internalType": "address",
          "name": "to",
          "type": "address"
        },
        {
          "internalType": "uint256",
          "name": "amount",
          "type": "uint256"
        }
      ],
      "name": "transferTokens",
      "outputs": [],
      "stateMutability": "nonpayable",
      "type": "function"
    }
  ],
  "bytecode": "0x60806040526040518060400160405280600781526020017f48617264686174000000000000000000000000000000000000000000000000008152506000908051906020019061004f92919061013b565b506040518060400160405280600381526020017f48485400000000000000000000000000000000000000000000000000000000008152506001908051906020019061009b92919061013b565b506127106002553480156100ae57600080fd5b50600254600360003373ffffffffffffffffffffffffffffffffffffffff1673ffffffffffffffffffffffffffffffffffffffff1681526020019081526020016000208190555033600460006101000a81548173ffffffffffffffffffffffffffffffffffffffff021916908373ffffffffffffffffffffffffffffffffffffffff16021790555061023f565b8280546101479061020d565b90600052602060002090601f01602090048101928261016957600085556101b0565b82601f1061018257805160ff19168380011785556101b0565b828001600101855582156101b0579182015b828111156101af578251825591602001919060010190610194565b5b5090506101bd91906101c1565b5090565b5b808211156101da5760008160009055506001016101c2565b5090565b7f4e487b7100000000000000000000000000000000000000000000000000000000600052602260045260246000fd5b6000600282049050600182168061022557607f821691505b60208210811415610239576102386101de565b5b50919050565b6109f88061024e6000396000f3fe608060405234801561001057600080fd5b50600436106100625760003560e01c806306fdde03146100675780635f515226146100855780637e1c0c09146100b55780638da5cb5b146100d357806395d89b41146100f1578063bec3fa171461010f575b600080fd5b61006f61012b565b60405161007c9190610661565b60405180910390f35b61009f600480360381019061009a91906106e6565b6101b9565b6040516100ac919061072c565b60405180910390f35b6100bd610202565b6040516100ca919061072c565b60405180910390f35b6100db610208565b6040516100e89190610756565b60405180910390f35b6100f961022e565b6040516101069190610661565b60405180910390f35b6101296004803603810190610124919061079d565b6102bc565b005b600080546101389061080c565b80601f01602080910402602001604051908101604052809291908181526020018280546101649061080c565b80156101b15780601f10610186576101008083540402835291602001916101b1565b820191906000526020600020905b81548152906001019060200180831161019457829003601f168201915b505050505081565b6000600360008373ffffffffffffffffffffffffffffffffffffffff1673ffffffffffffffffffffffffffffffffffffffff168152602001908152602001600020549050919050565b60025481565b600460009054906101000a900473ffffffffffffffffffffffffffffffffffffffff1681565b6001805461023b9061080c565b80601f01602080910402602001604051908101604052809291908181526020018280546102679061080c565b80156102b45780601f10610289576101008083540402835291602001916102b4565b820191906000526020600020905b81548152906001019060200180831161029757829003601f168201915b505050505081565b61033a6040518060400160405280602081526020017f2a2a2053656e6465722062616c616e6365732069733a20257320746f6b656e73815250600360003373ffffffffffffffffffffffffffffffffffffffff1673ffffffffffffffffffffffffffffffffffffffff168152602001908152602001600020546104dc565b80600360003373ffffffffffffffffffffffffffffffffffffffff1673ffffffffffffffffffffffffffffffffffffffff1681526020019081526020016000205410156103bc576040517f08c379a00000000000000000000000000000000000000000000000000000000081526004016103b39061088a565b60405180910390fd5b80600360003373ffffffffffffffffffffffffffffffffffffffff1673ffffffffffffffffffffffffffffffffffffffff1681526020019081526020016000205461040791906108d9565b600360003373ffffffffffffffffffffffffffffffffffffffff1673ffffffffffffffffffffffffffffffffffffffff1681526020019081526020016000208190555080600360008473ffffffffffffffffffffffffffffffffffffffff1673ffffffffffffffffffffffffffffffffffffffff16815260200190815260200160002054610495919061090d565b600360008473ffffffffffffffffffffffffffffffffffffffff1673ffffffffffffffffffffffffffffffffffffffff168152602001908152602001600020819055505050565b61057482826040516024016104f2929190610963565b6040516020818303038152906040527fb60e72cc000000000000000000000000000000000000000000000000000000007bffffffffffffffffffffffffffffffffffffffffffffffffffffffff19166020820180517bffffffffffffffffffffffffffffffffffffffffffffffffffffffff8381831617835250505050610578565b5050565b61058f816105876105926105b3565b63ffffffff16565b50565b60006a636f6e736f6c652e6c6f679050600080835160208501845afa505050565b6105be819050919050565b6105c6610993565b565b600081519050919050565b600082825260208201905092915050565b60005b838110156106025780820151818401526020810190506105e7565b83811115610611576000848401525b50505050565b6000601f19601f8301169050919050565b6000610633826105c8565b61063d81856105d3565b935061064d8185602086016105e4565b61065681610617565b840191505092915050565b6000602082019050818103600083015261067b8184610628565b905092915050565b600080fd5b600073ffffffffffffffffffffffffffffffffffffffff82169050919050565b60006106b382610688565b9050919050565b6106c3816106a8565b81146106ce57600080fd5b50565b6000813590506106e0816106ba565b92915050565b6000602082840312156106fc576106fb610683565b5b600061070a848285016106d1565b91505092915050565b6000819050919050565b61072681610713565b82525050565b6000602082019050610741600083018461071d565b92915050565b610750816106a8565b82525050565b600060208201905061076b6000830184610747565b92915050565b61077a81610713565b811461078557600080fd5b50565b60008135905061079781610771565b92915050565b600080604083850312156107b4576107b3610683565b5b60006107c2858286016106d1565b92505060206107d385828601610788565b9150509250929050565b7f4e487b7100000000000000000000000000000000000000000000000000000000600052602260045260246000fd5b6000600282049050600182168061082457607f821691505b60208210811415610838576108376107dd565b5b50919050565b7f4e6f7420456e6f75676820546f6b656e73000000000000000000000000000000600082015250565b60006108746011836105d3565b915061087f8261083e565b602082019050919050565b600060208201905081810360008301526108a381610867565b9050919050565b7f4e487b7100000000000000000000000000000000000000000000000000000000600052601160045260246000fd5b60006108e482610713565b91506108ef83610713565b925082821015610902576109016108aa565b5b828203905092915050565b600061091882610713565b915061092383610713565b9250827fffffffffffffffffffffffffffffffffffffffffffffffffffffffffffffffff03821115610958576109576108aa565b5b828201905092915050565b6000604082019050818103600083015261097d8185610628565b905061098c602083018461071d565b9392505050565b7f4e487b7100000000000000000000000000000000000000000000000000000000600052605160045260246000fdfea2646970667358221220acfd3655f9ca776336103e508c5347d9c4138cadaa981afd3682e2bfff144ec064736f6c63430008090033",
  "linkReferences": {},
  "deployedLinkReferences": {}
}